{
  "contractName": "WithdrawalContract",
  "abi": [
    {
      "constant": true,
      "inputs": [],
      "name": "richest",
      "outputs": [
        {
          "name": "",
          "type": "address"
        }
      ],
      "payable": false,
      "stateMutability": "view",
      "type": "function"
    },
    {
      "constant": true,
      "inputs": [],
      "name": "moneySent",
      "outputs": [
        {
          "name": "",
          "type": "uint256"
        }
      ],
      "payable": false,
      "stateMutability": "view",
      "type": "function"
    },
    {
      "inputs": [],
      "payable": true,
      "stateMutability": "payable",
      "type": "constructor"
    },
    {
      "constant": false,
      "inputs": [],
      "name": "becomeRichest",
      "outputs": [
        {
          "name": "",
          "type": "bool"
        }
      ],
      "payable": true,
      "stateMutability": "payable",
      "type": "function"
    },
    {
      "constant": false,
      "inputs": [],
      "name": "withdrawMoney",
      "outputs": [],
      "payable": false,
      "stateMutability": "nonpayable",
      "type": "function"
    }
  ],
  "bytecode": "0x6080604052336000806101000a81548173ffffffffffffffffffffffffffffffffffffffff021916908373ffffffffffffffffffffffffffffffffffffffff1602179055503460018190555061031e8061005a6000396000f300608060405260043610610062576000357c0100000000000000000000000000000000000000000000000000000000900463ffffffff16806302e26c381461006757806369934ee7146100be578063ac446002146100e0578063afeec556146100f7575b600080fd5b34801561007357600080fd5b5061007c610122565b604051808273ffffffffffffffffffffffffffffffffffffffff1673ffffffffffffffffffffffffffffffffffffffff16815260200191505060405180910390f35b6100c6610147565b604051808215151515815260200191505060405180910390f35b3480156100ec57600080fd5b506100f5610219565b005b34801561010357600080fd5b5061010c6102ec565b6040518082815260200191505060405180910390f35b6000809054906101000a900473ffffffffffffffffffffffffffffffffffffffff1681565b60006001543411156102115734600260008060009054906101000a900473ffffffffffffffffffffffffffffffffffffffff1673ffffffffffffffffffffffffffffffffffffffff1673ffffffffffffffffffffffffffffffffffffffff16815260200190815260200160002060008282540192505081905550336000806101000a81548173ffffffffffffffffffffffffffffffffffffffff021916908373ffffffffffffffffffffffffffffffffffffffff1602179055503460018190555060019050610216565b600090505b90565b6000600260003373ffffffffffffffffffffffffffffffffffffffff1673ffffffffffffffffffffffffffffffffffffffff1681526020019081526020016000205490506000600260003373ffffffffffffffffffffffffffffffffffffffff1673ffffffffffffffffffffffffffffffffffffffff168152602001908152602001600020819055503373ffffffffffffffffffffffffffffffffffffffff166108fc829081150290604051600060405180830381858888f193505050501580156102e8573d6000803e3d6000fd5b5050565b600154815600a165627a7a72305820a7feeb1f15417d1522e672e8b65e841f11a49a328c2dc602783b8f66697821530029",
  "source": "pragma solidity ^0.4.24;\n\ncontract WithdrawalContract {\n    address public richest;\n    uint public moneySent;\n    mapping(address => uint) pendingWithdrawals;\n\n    constructor() public payable{\n        richest = msg.sender;\n        moneySent = msg.value;\n    }\n\n    function becomeRichest() public payable returns (bool) {\n\n        if(msg.value > moneySent){\n            pendingWithdrawals[richest] += msg.value;\n            richest = msg.sender;\n            moneySent = msg.value;\n            return true;\n        }\n        else {\n            return false;\n        }\n    }\n\n    function withdrawMoney() public {\n        uint amount = pendingWithdrawals[msg.sender];        \n        pendingWithdrawals[msg.sender] = 0;\n        msg.sender.transfer(amount);\n    }\n}",
  "sourcePath": "/Users/vmankena/Documents/blockchain-git/Solidity-patterns/WithdrawlPattern/contracts/WithdrawalContract.sol",
  "compiler": {
    "name": "solc",
    "version": "0.4.24+commit.e67f0147.Emscripten.clang"
  },
  "schemaVersion": "2.0.0",
  "updatedAt": "2018-07-26T00:25:06.038Z"
}